:020000020000FC
:020000000EC030
:100014003CC00FEF0DBF08E00EBF00E80093610085
:1000240004E0009361000E94420000E007B90FEF72
:1000340008B90FEF04B900E005B90FEF0AB900E001
:100044000BB900E00093C10040E050E020E002E082
:100054000093680003E000936C00789405B300FFFC
:10006400FDCFA89A04E606BD43954436B9F7442764
:100074002395203111F025B9F1CF10E015B9EECF59
:1000840003E005BD04E606BD089506B110FF2C9AF1
:0600940011FF2C981895E5
:00000001FF
