:020000020000FC
:0200000016C028
:1000140049C077503B7A5C6E6F707F7E7D4F275B63
:100024002F2D0FEF0DBF08E00EBF00E80093610015
:1000340004E0009361000E944F0000E007B90FEF55
:1000440008B90FEF04B900E005B90FEF0AB900E0F1
:100054000BB900E00093C10040E060E020E030E133
:1000640002E00093680003E000936C007894F0E0F1
:10007400E6E164916BB905B300FFFDCFA89A04E6ED
:1000840006BD43954436B9F74427231719F0239541
:1000940025B9F1CF207125B9EECF03E005BD04E603
:1000A40006BD089516B110FF20E111FF20E024FFE2
:0A00B4003FE024FD3FE125B9189557
:00000001FF
