:020000020000FC
:0200000016C028
:1000140055C077503B7A5C6E6F707F7E7D4F275B57
:100024002F2D0FEF0DBF08E00EBF00E80093610015
:1000340004E0009361000E945B0000E007B90FEF49
:1000440008B90FEF04B900E005B90FEF0AB900E0F1
:100054000BB900E00093C10040E060E050E020E014
:1000640030E102E00093680003E000936C007894B0
:10007400F0E0E6E164916BB905B300FFFDCFA89A07
:1000840004E606BD43954436B9F74427251719F00D
:10009400239525B9F1CF207124FF03C024FD05C0A9
:1000A400EBCF20E1520F25B9E7CF5F7020E025B9EF
:1000B400E3CF03E005BD04E606BD0895207125B92C
:1000C40016B110FF0E946B0011FF0E947D006BB9F6
:1000D40018955395503119F0319664910895F0E0D4
:1000E400E6E1649150E00895F0E0E6E13F96649122
:1000F4006BB95FE008955030B9F35A953197649124
:0201040008955C
:00000001FF
