:020000020000FC
:0200000012C02C
:100014005AC077503B7A5C6E6F707F7E7D4F275B52
:100024002F2D0FEF0DBF08E00EBF00E80093610015
:1000340004E0009361000E94600000E007B90FEF44
:1000440008B90FEF04B900E005B90FEF0AB900E0F1
:100054000BB900E00093C10040E060E050E020E014
:1000640070E08FE002E00093680003E000936C000E
:100074007894F0E0E6E164916BB905B300FFFDCF3D
:10008400A89A04E606BD43954436B9F744272517D4
:1000940019F0239525B9F1CF207124FF03C024FD65
:1000A40007C0EBCF20E1520F25B970E18FE1E5CF16
:1000B4005F7020E025B970E08FE0DFCF03E005BD7D
:1000C40004E606BD0895207125B916B110FF0E94FB
:1000D400700011FF0E9482006BB91895581721F027
:1000E4005395319664910895F0E0E6E16491572FB9
:1000F4000895F0E0E6E13F9664916BB9582F0895B6
:0C0104005717B9F35A953197649108958C
:00000001FF
