:020000020000FC
:020000000EC030
:100014003DC00FEF0DBF08E00EBF00E80093610084
:1000240004E0009361000E94430000E007B90FEF71
:1000340008B90FEF04B900E005B90FEF0AB900E001
:100044000BB900E00093C10040E050E020E030E153
:1000540002E00093680003E000936C00789405B319
:1000640000FFFDCFA89A04E606BD43954436B9F7D0
:100074004427231719F0239525B9F1CF207125B909
:10008400EECF03E005BD04E606BD089516B110FFEA
:1000940020E111FF20E024FF3FE024FD3FE125B9EA
:0200A4001895AD
:00000001FF
