:020000020000FC
:1000000077503B7A5C6E6F707F7E7D4F275B2F2D24
:100010000FEF0DBF08E00EBF00E007B90FEF08B902
:100020000FEF04B900E005B90FEF0AB900E00BB912
:1000300000E00093C1001FEF20E050E0F0E0E0E0BE
:1000400024912BB906B11017E9F30E944B0006B1B9
:100050001017C1F3102F00FF0E94330001FF0E9410
:1000600039002BB9EFCF5395503149F03196249197
:100070000895503051F02A95319724910895F0E079
:10008000E0E024912BB950E00895F0E0EFE02491F6
:100090002BB95FE008953FEF3A953030E9F73FEF35
:1000A0003A953030E9F73FEF3A953030E9F7089567
:00000001FF
