:020000020000FC
:1000000077503B7A5C6E6F707F7E7D4F275B2F2D24
:100010000FEF0DBF08E00EBF00E80093610004E0A1
:100020000093610000E007B90FEF08B90FEF04B9C2
:1000300000E005B90FEF0AB900E00BB900E000934A
:10004000C1001FEF20E030E0F0E0E0E034913BB988
:1000500006B11017E9F30E94510006B11017C1F361
:10006000102F00FF0E94390001FF0E944B003BB996
:10007000EFCF2395203119F0319634910895F0E0B7
:10008000E0E034913BB920E00895F0E0EFE03491F6
:100090003BB92FE008952030C1F32A953197349170
:1000A000089540E043954030E9F740E04395403003
:0400B000E9F70895CF
:00000001FF
