:020000020000FC
:100000000FEF0DBF08E00EBF00E80093610004E0B1
:100010000093610000E007B90FEF08B90FEF04B9D2
:1000200000E005B90FEF0AB900E00BB900E000935A
:10003000C1001FEF20E030E006B11017E9F306B170
:100040001017D1F3102F00FF0E942D0001FF0E9416
:1000500033000E9439003BB9EFCF2F3011F02395C8
:10006000089520E00895203011F0239508952FE0A1
:100070000895203001F030E0089540E0439540308D
:0C008000E9F740E043954030E9F70895AF
:00000001FF
