:020000020000FC
:1000000077503B7A5C6E6F707F7E7D4F275B2F2D24
:100010000FEF0DBF08E00EBF00E80093610004E0A1
:100020000093610000E007B90FEF08B90FEF04B9C2
:1000300000E005B90FEF0AB900E00BB900E000934A
:10004000C1001FEF20E030E0F0E0E0E034913BB988
:1000500006B11017E9F30E94420006B11017C1F370
:10006000102F00FF0E94390001FF0E943F003BB9A2
:10007000EFCF2F3011F02395089520E008953197A8
:100080003491089540E043954030E9F740E04395CE
:060090004030E9F708957D
:00000001FF
