:020000020000FC
:100000000FEF0DBF08E00EBF00E80093610004E0B1
:100010000093610000E007B90FEF08B90FEF04B9D2
:1000200000E005B90FEF0AB900E00BB900E000935A
:10003000C1001FEF20E030E006B11017E9F30E9485
:100040007C0006B11017C1F3102F00FF0E942F0093
:1000500001FF0E9435000E943B003BB9EDCF2F30DD
:1000600011F02395089520E00895203011F02A958D
:1000700008952FE008952030F9F02130F9F0223072
:10008000F9F02330F9F02430F9F02530F9F026307A
:10009000F9F02730F9F02830F9F02930F9F02A305A
:1000A000F9F02B30F9F02C30F9F02D30F9F02E303A
:1000B000F9F02F30F9F0089537E7089530E5089505
:1000C0003BE308953AE708953CE508953EE6089538
:1000D0003FE6089530E708953FE708953EE7089525
:1000E0003DE708953FEF089537E2089537EF08950B
:1000F0003FE208953DE2089540E043954030E9F73E
:0A01000040E043954030E9F7089510
:00000001FF
