:020000020000FC
:100000000FEF0DBF08E00EBF00E80093610004E0B1
:100010000093610000E007B90FEF08B90FEF04B9D2
:1000200000E005B90FEF0AB900E00BB900E000935A
:10003000C1001FEF20E030E006B11017E9F30E9485
:100040007B0006B11017C1F3102F00FF0E942F0094
:1000500001FF0E9435000E943B003BB9EDCF2F30DD
:1000600011F02395089520E00895203011F02A958D
:1000700008952FE008952030F1F02130F1F0223082
:10008000F1F02330F1F02430F1F02530F1F026309A
:10009000F1F02730F1F02830F1F02930F1F02A307A
:1000A000F1F02B30F1F02C30F1F02D30F1F02E305A
:1000B000F1F02F30F1F037E7089530E508953BE394
:1000C00008953AE708953CE508953EE608953FE631
:1000D000089530E708953FE708953EE708953DE726
:1000E00008953FE4089537E208953BE508953FE21F
:1000F00008953DE2089540E043954030E9F740E03F
:0801000043954030E9F7089532
:00000001FF
